:020000040800F2
:10000000A0090020B54700081F15000821150008A9
:1000100025150008291500082D150008000000000E
:100020000000000000000000000000003115000882
:100030003315000800000000351500084D140008B5
:10004000CF470008CF470008CF470008CF47000838
:10005000CF470008CF470008CF470008CF47000828
:10006000CF470008B7140008D1140008EB140008AB
:10007000CF470008A5140008CF470008CF47000865
:10008000CF470008CF4700080000000061140008B7
:10009000CF470008CF470008CF470008CF470008E8
:1000A000CF470008CF470008CF470008CF470008D8
:1000B000CF47000800000000CF4700080000000004
:1000C000CF47000800000000CF470008CF470008D6
:1000D000CF470008CF470008CF47000800000000C6
:1000E0000000000000000000CF470008CF470008D4
:1000F000CF470008CF470008CF470008CF47000888
:10010000CF4700080000000000000000CF470008B3
:1001100000000000000000000000000000000000DF
:1001200000000000000000000000000000000000CF
:1001300000000000000000000000000000000000BF
:1001400000000000000000000000000000000000AF
:100150000000000000000000CF470008CF47000863
:10016000CF470008CF47000800F002F800F03AF847
:100170000AA090E8000C82448344AAF10107DA4502
:1001800001D100F02FF8AFF2090EBAE80F0013F01A
:10019000010F18BFFB1A43F0010318478C520000EF
:1001A000AC520000103A24BF78C878C1FAD8520780
:1001B00024BF30C830C144BF04680C6070470000E1
:1001C0000023002400250026103A28BF78C1FBD860
:1001D000520728BF30C148BF0B6070471FB51FBD15
:1001E00010B510BD04F076FC1146FFF7F7FF00F0E4
:1001F0005AF804F094FC03B4FFF7F2FF03BC04F0D8
:100200009BFC0000002400207A49087002F0DEFA0E
:10021000002000F06CF9012077490870002000F000
:1002200001F901F0EBFA00BF05E074490C700A20F7
:1002300001F06BF9641C082CF7DB00206F49087093
:100240006F4803F08FFF002204216E4802F0B2FBDA
:1002500001E002F0BBFAFCE710B50446B4F5004F2C
:1002600001D1012000E0002002464FF400414FF090
:10027000904002F09FFBB4F5805F01D1012000E0C7
:10028000002002464FF480514FF0904002F092FB64
:10029000082C01D1012000E0002002460821594825
:1002A00002F088FB10BD04F019FB57480068642277
:1002B000B0FBF2F1481EB0F1807F00D31BE0481E76
:1002C0004FF0E022506150170F22002804DB130783
:1002D0001C0E4E4B1C5406E013071D0E4C4B00F039
:1002E0000F04241F1D5500BF00204FF0E022906135
:1002F0000720106100BF00F0ADFC08B900BFFEE7A9
:1003000000F0A2FC00F0C1FC00F0E7FC0122042197
:100310003C4802F04FFB00F0B5FF00F042FF00F058
:100320007EFE02F053FA01F014F8072033490870FA
:10033000642001F0EAF802F049FA00202F49087021
:1003400001E002F043FA4FF40041324802F039FB79
:100350000028F6D148E02848007828B94FF4004139
:100360002C4802F02EFB08B1FFF74CFF2A4800880A
:1003700048F6B801884204DD4FF40040FFF76CFFF7
:1003800022E02548008848F2E80188420ADD224838
:10039000008848F6B801884204DA4FF48050FFF72D
:1003A0005BFF11E01C48008847F61811884209DD00
:1003B0001948008848F2E801884203DA0820FFF76C
:1003C0004BFF01E0FFF71EFF144801680068401C66
:1003D000124A10601248814201D9FFF713FF05202D
:1003E00001F093F802F0F2F9B5E700200B4908603C
:1003F00070470000620000208C0000206100002097
:1004000000440040000400489400002000E400E0A4
:1004100018ED00E00008004808000020040000205B
:1004200080380100FE49097801B110B90021FD4A68
:100430001170FB4908707047002801DA414208B288
:10044000704710B504462046FFF7F6FF0A2801DB87
:10045000FFF7CBFF0120F349087041F28830844256
:1004600000DD04E0F048844200DA00E02046EF4975
:100470000860002C03DD0120ED4908700AE0002C23
:1004800003DAFF20EA49087004E00020E849087018
:10049000E8490870E848007860B1E7480078022829
:1004A0000ED1E248008800B2FFF7C6FFE3490978A1
:1004B000884205DD0020E2490870E249087015E035
:1004C000DC480078032803D10120DE49087002E0EF
:1004D0000120DB490870D548008800B2FFF7ACFF67
:1004E00040F6C23191FBF0F0D749086010BDB0F57D
:1004F0007A7F02DD4FF47A7105E010F57A7F01DA38
:10050000D24900E00146D24A1180704710B5044636
:100510002046FFF791FF052801DDFFF766FF002069
:10052000C0490870C6490870C04908600CB9C14983
:1005300008702046FFF7DBFF10BDC648B0F9000089
:100540007047C548B0F900007047C449096849F2CE
:100550003832914201D1002009E0C0490968C04AFF
:1005600092FBF1F1BF4A92F90020514308B2BE4913
:100570000968A1EBE1110144BB4A11601146096809
:10058000C91109B2B44A1180704770B5B748006804
:1005900004F0E2FC0546B64904F0F6FC044604F01B
:1005A000BFFC70BD01B2B34A118000F1780109B2FD
:1005B000B14A118000F1F00109B2B04A1180AD4991
:1005C000B1F9001001F5B4714FF4B47291FBF2F37C
:1005D00002FB131109B2A74A1180A749B1F9001013
:1005E00001F5B4714FF4B47291FBF2F302FB1311F5
:1005F00009B2A14A1180A149B1F9001001F5B47105
:100600004FF4B47291FBF2F302FB131109B29B4A4F
:1006100011807047002800DA4042704700B58348D7
:1006200000688D49B1F90010401A954908607F486B
:10063000006841F27A4148437D4991F90010C1EBCD
:10064000C10100EB4140C01300B28E4908808C48C4
:10065000006841F699114843C01300B28A490880E6
:1006600072480068FFF7D6FF052806DB6F48006870
:10067000864909684843002803DA00208449086055
:1006800019E07F4800688249096808448049086089
:1006900008460068B0F5960F02DD4FF4960008E0BA
:1006A0007B48006810F5960F01DA7A4801E0784837
:1006B00000687749086076480068C01300B2764940
:1006C00008805A480068714908606E4800886E4981
:1006D0000988084470490988084400B200BD54499B
:1006E00091F90010002907DD6C490978C1EB01116F
:1006F000E92202EB810008E068490978C1EB0111A9
:10070000B42202EB8101E93908B270472DE9F041CA
:100710004FF40061624802F054F904460221614836
:1007200002F04FF905464FF480415F4802F049F965
:10073000064604EB450000EB8600C7B25B48C05D8F
:10074000BDE8F0812DE9F84359480088401C58491C
:1007500008805848007830B30846008841F2883154
:1007600090FBF1F154480078401C91FBF0F200FB43
:100770001210C0B94E4800884E49097890FBF1F23A
:1007800001FB1200A8B94D48007808B9012000E02B
:1007900000204A490870084602784FF480614048BA
:1007A00002F008F905E000224FF480613C4802F0B5
:1007B00001F94348B0F90000B0F57A7F13DA4048F8
:1007C0000088401C00B23E4908803E4949883E4AA4
:1007D000B2F90020881800EBD071491009B23A4AEA
:1007E0001180BDE8F88332480088642190FBF1F263
:1007F00001FB1200002812D13248008845F66A61D8
:1008000048434FF47A71B0FBF1F080B206462D49AF
:1008100049882D4AB2F90020891A2C4A58E08FE005
:100820004E0000205800002078ECFFFF5000002010
:10083000190000201A0000201B0000201C000020CE
:100840002C0000202D0000203000002018FCFFFFAD
:100850004C000020780000207000002014000020D0
:100860001CE00200180000206C0000200C0000209A
:100870007F6ABC40380000203A0000203C00002085
:10088000240000201E000020200000205400002032
:10089000280000200000B5FF220000205E0000209C
:1008A0000004004800140048000800480C540008E8
:1008B0006400002061000020620000206000002031
:1008C000660000205A000020680000201C1303006E
:1008D00001FB02F004F0A7F907460022134604F0DA
:1008E000B9F909D2B7484088B749B1F90010401AA0
:1008F000B6494843404207E0B2484088B249B1F99E
:100900000010401AB14948434FF47A7190FBF1F05E
:1009100085B2AF480088301A642190FBF1F0AC49F1
:1009200009880844AA490880AA480088281A64212E
:1009300090FBF1F0A74909880844A649088000BF48
:10094000A448008843F69821884206DCA248007833
:1009500018B1A2480078012803D1A14802F0E5FEB1
:1009600002E09F4802F0DCFEFFF7D0FE9D490870D0
:10097000084600789C490978884231D09B48006835
:100980009B4908600020994908609648007896497C
:100990000978401A44B2012C01D0601D18B9012019
:1009A0009449087006E0601C08B1052C02D1FF20B4
:1009B00090490870904800688E4991F900100844E9
:1009C0008D4908608D48007850B100208B4908702F
:1009D00001208B490870FFF782FE0546FFF7E2FD14
:1009E0008248006849F23831884205DA7F48006859
:1009F000401C7E49086006E049F238307C490860B6
:100A000000208049088080480078002864D07F4812
:100A1000006818B90020FFF76AFD04E0FFF7FEFD4B
:100A20000346FFF764FD7A480068A0EBA0207949EF
:100A3000B1F9001008447649086008460068801241
:100A400000B2754908806E480078A8B30220734947
:100A5000087073480068401C7149086008460068C7
:100A60007049096888420BDB6F4909886F4A92F91F
:100A70000020114408B2FFF795FD00206849086086
:100A80006B486949B1F9001030F91100C01069498B
:100A9000086067486849B1F9001030F91100C010CA
:100AA0006649086062486649B1F9001030F91100E2
:100AB000C010644908602DE0FFE703205749087023
:100AC00060485E4B5B4A0090464801785248B0F956
:100AD000000004F038F81DE00120504908704C482F
:100AE0000068A0EBA0204B49B1F900100844484928
:100AF000086008460068801200B2474908805148E3
:100B00004E4B4C4A0090374801784348B0F90000FA
:100B100004F019F84B48006800F26540B0F50C6F1E
:100B200002DD4FF40C600BE04648006800F26540BF
:100B30000A2801DA0A2003E04248006800F2654012
:100B400002460221264802F030FF3C48006800F2CD
:100B50006540B0F50C6F02DD4FF40C600BE03748D8
:100B6000006800F265400A2801DA0A2003E03348F1
:100B7000006800F2654002460121194802F015FFA5
:100B80002C48006800F26540B0F50C6F02DD4FF4B0
:100B90000C600BE02748006800F265400A2801DA83
:100BA0000A2003E02348006800F265400246002165
:100BB0000B4802F0FAFE0B4800780B49087000BFA2
:100BC0000FE600005A000020680000201C130300FC
:100BD000080000200A0000204E00002084000020B1
:100BE000002C01405E0000205F000020100000206B
:100BF00014000020180000200C0000202D00002010
:100C00002C00002070000020580000205000002020
:100C1000740000204C000020780000201A00002002
:100C2000340000203000002038000020190000208F
:100C30003C510008400000203C00002044000020FF
:100C40003A0000204800002010B54FF4407001F039
:100C50000DFF10BD10B540F61D1002F009F908B1E6
:100C600002F015F9022140F6FF7001F0D4FD0128D1
:100C700005D140F6FF7001F0B3FD012801D000203E
:100C800010BD01F0A8FD0120FAE710B54FF4E160B6
:100C900001F0B6FFFE4802F0CFFB0020FD4988803E
:100CA00008802020488048F6A04088600020888185
:100CB0008873F74802F077FCF649F54802F025FC06
:100CC00000221146132001F0D6FE0121F04802F067
:100CD000C1FCEF4802F058FC10BD10B540F21150B5
:100CE00001F08EFF40F2125001F08AFF40F21350E3
:100CF00001F086FF40F2165001F082FF4FF40043EE
:100D0000002201214FF0904001F008FE4FF4004313
:100D1000012200214FF0904001F027FE082300221D
:100D20000121DD4801F0FAFD082301220021DA4803
:100D300001F01BFE4FF48053002201214FF0904040
:100D400001F0ECFD4FF48053012200214FF0904060
:100D500001F00BFE0223002201214FF0904001F030
:100D6000DDFD0223012200214FF0904001F0FDFD46
:100D70000123002219464FF0904001F0CFFD0123DE
:100D80001A4600214FF0904001F0EFFD4FF4005360
:100D900000220121C14801F0C1FD4FF4005303229C
:100DA0000021BE4801F0E1FD4FF40063002211462E
:100DB000B94801F0B3FD022300221146B84801F002
:100DC000ADFD4FF4804300221146B44801F0A6FD6A
:100DD0000423012202214FF0904001F09FFD0823DF
:100DE000012202214FF0904001F098FD04230322DC
:100DF00000214FF0904001F0B8FD082303220021AC
:100E00004FF0904001F0B1FD042201214FF09040DD
:100E100001F0EFFD082201214FF0904001F0E9FDC3
:100E20001023002203214FF0904001F077FD402372
:100E3000002203214FF0904001F070FD402300227A
:100E400003214FF0904001F069FD012300220321AE
:100E5000914801F063FD1023002201218E4801F02A
:100E60005DFD1023032200218B4801F07EFD4FF42D
:100E7000805300220221884801F050FD4FF4805237
:100E80000221854801F0B5FD4FF480630022022164
:100E90004FF0904001F042FD4FF400730022022118
:100EA0004FF0904001F03AFD4FF480730022022190
:100EB0004FF0904001F032FD4FF400430022022138
:100EC000754801F02BFD4FF4804300220221724847
:100ED00001F024FD4FF40053002202216E4801F07E
:100EE0001DFD4FF48063002211464FF0904001F049
:100EF0003CFD4FF40073002211464FF0904001F08A
:100F000034FD4FF48073002211464FF0904001F001
:100F10002CFD4FF40043002211465F4801F025FDEF
:100F20004FF48043002211465B4801F01EFD4FF450
:100F3000005300221146584801F017FD4FF480621B
:100F400002214FF0904001F054FD4FF40072022155
:100F50004FF0904001F04DFD4FF4807202214FF0B0
:100F6000904001F046FD4FF4004202214A4801F052
:100F700040FD4FF480420221474801F03AFD4FF412
:100F800000520221444801F034FD042300220121D3
:100F9000414801F0C3FC0423012200213E4801F036
:100FA000E4FC4023012202213B4801F0B7FC8023EE
:100FB00001220221384801F0B1FC40230322002124
:100FC000354801F0D2FC802303220021324801F091
:100FD000CCFC40220021304801F00BFD8022002192
:100FE0002D4801F006FD4FF48063002201212A48BC
:100FF00001F094FC4FF4806303220021264801F0A5
:10100000B4FC4FF4004300221146244801F086FC52
:1010100001231A460021224801F080FC10BD10B5C2
:1010200040F20B6001F0ECFD1E4802F005FA0020D2
:101030001D49888008802020488040F6CA008860CA
:10104000002088818873174802F0ADFA16491548C8
:1010500002F05BFA00220221124802F0E6FC0022B4
:101060000121104802F0E1FC002211460D4802F077
:10107000DCFC002202210B4802F0AAFC0022012124
:10108000084802F0A5FC0022114606480EE00000C8
:10109000002000409800002000040048000800489C
:1010A00000140048002C0140A800002002F090FC31
:1010B00070220221DA4802F04BFC70220121D8484C
:1010C00002F046FC70220021D54802F041FC0022CB
:1010D0000221D34802F069FC00220121D04802F02D
:1010E00064FC00221146CE4802F05FFC0020CD498E
:1010F00088800820C880002008814FF40070488153
:101100000A460221C64802F037FBC64A0121C448FC
:1011100002F032FBC34A0021C14802F02DFB4FF41C
:101120000060C14908800020488048813C208880B8
:101130004FF4805088810020C8804FF4804008819F
:10114000B74802F0D5FAB64802F023FA012202218C
:10115000B34802F022FD01221146B14802F01DFD04
:1011600001220021AE4802F018FD04220221AC4801
:1011700002F041FD04220121A94802F03CFD0422B5
:101180000021A74802F037FD002211460D2001F092
:1011900072FC0121A24802F05DFAA14802F0F4F9C4
:1011A00010BD00B587B040F2096001F029FD4FF491
:1011B000A06001F025FD032001F0B5FD0022012112
:1011C000092001F058FC002001F0A2F80020974906
:1011D00088619748C860002048614FF480600861CA
:1011E0000220C861934808600120886000024860BE
:1011F0004FF44050086218220C31684603F035FC69
:101200008A480EC8002001F0AFF8002001F033F941
:10121000002001F05DF90221002001F09DFA022179
:10122000002001F090F9002001F061F90221012075
:1012300000F00DFE02220421002000F034FE022204
:101240000621012000F02FFE002000F0F1FD012119
:10125000084600F0F3FE4FF46021012000F01AFF71
:1012600000F061FD00F06DFD01F03DF800F018FDAB
:1012700000F029FD00F042FD0121080200F097FD79
:1012800007B000BD00B587B040F2117001F0B8FCA6
:101290004FF4A06001F0B4FC4FF4E131664802F075
:1012A0007EFF0021644802F0B6FF0021624802F090
:1012B000BEFF0021604802F0C6FF00215E4803F037
:1012C00048F808215C4802F0D4FF04215A4802F093
:1012D000D8FF594802F0C3FF002202210B2001F081
:1012E000CAFB042001F014F80020544988615448D6
:1012F000C8600020486108610120C8614E48243060
:10130000086001208860002048604FF44050086267
:1013100018220C31684603F0A8FB48480EC8042088
:1013200001F022F8042001F0A6F8042001F0D0F822
:101330004021414803F0A8F90221042001F00CFAF1
:101340000121042001F0FFF8042001F0D0F807B0DB
:1013500000BD00B587B040F20E6001F051FC4FF4C3
:10136000A06001F04DFC4FF4E131364802F017FF68
:101370000021344802F04FFF0021324802F057FFAD
:101380000021304802F05FFF00212E4802F0E1FF0B
:1013900008212C4802F06DFF04212A4802F071FF59
:1013A000284802F05CFF002202210A2001F063FBC2
:1013B000022000F0ADFF0020204988612248C8606B
:1013C0000020486108610120C8611E48243008607F
:1013D00001208860002048604FF4405008621822C5
:1013E0000C31684603F041FB14480EC8022000F09F
:1013F000BBFF022001F03FF8022001F069F8402114
:10140000104803F041F90221084601F0A5F9012135
:10141000022001F098F8022001F069F807B000BD41
:10142000002C0140C6000020B8000020F800002079
:101430005A0000204C24014000440040D400002009
:101440007A000020003801407B0000203A48006804
:10145000401C3949086070470020384908607047CF
:1014600010B5FFF772F8354800683549B1F900103A
:10147000B0EB410F09D93348007810B90020FFF7CD
:1014800045F801202F49087007E000202D49087019
:101490002A480068401C2949086001212A4802F0B6
:1014A000F1F810BD10B5012000F012FE012127480F
:1014B00002F0E8F810BD10B5FFF744F90221002052
:1014C00001F0DFF818B10221002001F03CF910BD55
:1014D00010B50221084601F0D4F828B100F01AF93D
:1014E0000221084601F02FF910BD10B50221042099
:1014F00001F0C7F828B100F0FBFA0221042001F046
:1015000022F910BD0C48006870470B4A116800E0D2
:1015100000BF094A1268521A8242F9D370477047D5
:1015200000BFFEE700BFFEE700BFFEE700BFFEE72B
:1015300070477047704700007C000020800000204A
:101540008E0000208400002000200040002C01407C
:101550002DE9F04107460D46164600240DE0295DB1
:10156000384602F096FE00BF40F20671384603F09E
:10157000C5F80028F8D0601CC4B2B442EFDBBDE867
:10158000F08130B50246002016E012F8015B80EAD7
:101590000520082300BF00F400442CB141F22104CF
:1015A00084EA4004A0B203E04FF6FF7404EA40006E
:1015B0005C1EE4B2231EEED14C1E211EE5DA30BDC6
:1015C0003EB500242F222046641C0DF800200A227C
:1015D0002046641C0DF80020224669467C48FFF72F
:1015E000B7FF3EBD02468A4201DB104670470846FF
:1015F000FCE72DE9FF5F044694F8018020782F284E
:1016000004D108F10700205C0A2803D0002004B0B0
:10161000BDE8F09F08F105012046FFF7B2FF07463D
:1016200008F10500215CF8B2814205D108F10600FD
:10163000205CB0EB172F01D00020E8E7E078654987
:10164000087020796449087062480078862802D0C2
:10165000FF2859D14AE00120FEF7E4FEA079617924
:1016600001EB002005B2A946217A090209B2E2790C
:10167000881803F071FC834603F026FC574A584B48
:10168000CDE9000103F022FBCDE9020103F09CFA51
:101690000FFA80FA05EB0A0005B2A9EB0A000FFA6F
:1016A00080F94846FEF7C8FE83462846FEF7C4FE8A
:1016B00059460390FFF796FF064641F288318E4265
:1016C0000BDD0846684390FBF6F005B2084609FBBF
:1016D00000F090FBF6F00FFA80F9684201B20620A4
:1016E00000F064FA4846FEF7ACFE0EE0002106204A
:1016F00000F05CFA0021FF2000F058FA0020FEF70D
:1017000005FF00F077F800E000BF00BFFFF7A4FE80
:1017100001207CE72DE9F041324806783248007814
:1017200038B92F2E05D100203049087001202E49EC
:1017300008702D480078002848D02D482B4909789A
:1017400046542A480078401C28490870084600780A
:1017500001283BDD26484778042F04DD002008706F
:101760002149087032E021480178F81D81422DDDC1
:101770001F48FFF73EFF28B100201C4908701A4996
:10178000087023E00025012406E01948005D2F2899
:1017900001D1254604E0641C144800788442F4DB3F
:1017A00000BF002D0CDD11480078401B0F49087068
:1017B0000F4841190D4802780D4803F011F904E073
:1017C00000200A4908700849087000BFBDE8F08190
:1017D000003801408700002088000020AAF1D24D87
:1017E00062100C407B000020850000208600002055
:1017F0001C0100200120FB49087070472DE9F043CF
:1018000085B001254FF00008F648007808B10120A6
:1018100000E00020814600260027F348007849EACE
:10182000400000F0FF092F208DF8000001208DF806
:101830000100EE4800780007000E8DF8020001203C
:101840008DF80300EA4800788DF804008DF80590C3
:10185000E7480078062837D006DC06287CD2DFE887
:1018600000F0A27C3E0C1728072843D008284CD053
:10187000092854D0FF286FD193E00325DD48007874
:101880008DF80600DB480088000A8DF807008BE021
:101890000525FEF77AFE0446E0B28DF80600200A20
:1018A0008DF80700200C8DF80800200E8DF8090037
:1018B0007AE00325D04800788DF80600CE480088ED
:1018C00000128DF807006FE00325CC4800788DF8F2
:1018D0000600CA48008800128DF8070064E003255E
:1018E000FEF72BFE0646F0B28DF80600300A8DF8A2
:1018F000070059E00325C24800788DF80600C0486B
:10190000008800128DF807004EE00325BD480078DE
:101910008DF80600BC4800788DF8070044E00725E4
:10192000BA4800788DF80600B8480088000A8DF89B
:101930000700B74800788DF80800B5480088000A0D
:101940008DF80900B34800788DF80A00B148008886
:10195000000A8DF80B0027E025E00925FEF7EDFDD4
:101960000646FEF712FE0446A24800788DF80600EF
:10197000A0480088000A8DF807002746F8B28DF8C5
:101980000800380A8DF80900380C8DF80A00380E66
:101990008DF80B00F0B28DF80C00300A8DF80D00B8
:1019A00002E0012500E000BF00BF8DF80150691D75
:1019B0006846FFF7E6FD804608F0FF01681D0DF858
:1019C00000104FEA1821A81D0DF800100A21E81D8B
:1019D0000DF80010401CC2B269468F48FFF7B8FDF1
:1019E00005B0BDE8F08370B50446667820782F28EE
:1019F00003D1F01D205C0A2801D0002070BD711DAC
:101A00002046FFF7BEFD0546701D205CE9B2884206
:101A100004D1B01D205CB0EB152F01D00020EDE704
:101A2000A07800F00F007D490870A07800096F4988
:101A30000870E0787A49087020796D490870784814
:101A40000078062835D008DC02282ED003280BD0D9
:101A500004280DD0052840D10EE0092817D00A2807
:101A60001CD0FF2839D12FE00120FEF7DBFC35E048
:101A70000020FEF7D7FC31E00120FEF7D3FCA1796E
:101A8000627902EB012108B2FEF740FD26E06079A1
:101A9000A17900EB01205A4908801FE0607959497B
:101AA0000870A0795849087018E000205D49086066
:101AB00014E00120FEF7B6FCA179627902EB012166
:101AC00008B2FEF7BEFC09E00020FEF71FFDFFF79D
:101AD00091FEFF204649087000E000BF00BF444867
:101AE000007808B1FFF78AFEFFF7B6FC012085E712
:101AF0002DE9F0414C4806784C48007838B92F2E33
:101B000005D100204A49087001204849087047481B
:101B10000078002848D04748454909784654444849
:101B20000078401C424908700846007801283BDDD7
:101B300040484778092F04DD002008703B490870B1
:101B400032E03B480178F81D81422DDD3948FFF72E
:101B50004AFF28B10020364908703449087023E054
:101B60000025012406E03348005D2F2801D12546D9
:101B700004E0641C2E4800788442F4DB00BF002D92
:101B80000CDD2B480078401B294908702948411971
:101B900027480278274802F023FF04E00020244968
:101BA00008702249087000BFBDE8F081F0B585B02B
:101BB00005460E46012400272F208DF80000012045
:101BC0008DF80100094800780007000E8DF802002A
:101BD0008DF8035000208DF80400862D2CD0FF2DA9
:101BE00034D131E08C0000201A0000209100002048
:101BF0009300002070000020080000200A00002050
:101C00008E0000201B0000201C0000201E00002071
:101C1000200000202200002000440040900000200E
:101C2000920000200C0000207A0000208A00002092
:101C30008B000020280100200224F0B28DF805005E
:101C4000300A8DF8060002E0002400E000BF00BF6B
:101C50008DF80140611D6846FFF793FC0746F9B215
:101C6000601D0DF80010390AA01D0DF800100A21A2
:101C7000E01D0DF80010401CC2B269460248FFF793
:101C800067FC05B0F0BD00000044004010B540F214
:101C9000093000F0EDFF40F2093000F0F7FF10BD11
:101CA000FA48006800F0010028B9F848006840F0E0
:101CB0000100F64908607047F448006820F0010010
:101CC000F24908607047F148006840F00800EF49A9
:101CD000086000BFED48006800F008000028F9D156
:101CE000EA48006840F00400E849086000BFE7489F
:101CF000006800F004000028F9D17047E34800684C
:101D000040F48070E14908607047E048006820F4C2
:101D10008070DE4908607047DC48006840F40000CD
:101D2000DA4908607047D948006820F40000D749B4
:101D300008607047D548006840F08070D34908605B
:101D40007047D248006820F08070D0490860704722
:101D5000CE4A121F126822F4C052CC4B1B1F1A60CD
:101D6000012802D002281FD115E0C84A121F1268AC
:101D700022F46042C54B1B1F1A601A4613684A1EA4
:101D800043EA4232C14B1B1F1A601A46126842F4E2
:101D900000621A6009E0BD4A121F126842F48052C4
:101DA000BA4B1B1F1A6000E000BF00BF7047F9B1BB
:101DB00000F480723AB1B54A121F126842F4807280
:101DC000B24B1B1F1A6000F480623AB1AF4A121F77
:101DD000126842F48062AD4B1B1F1A6000F00202D1
:101DE0002AB3AA4A126842F00202A84B1A601EE007
:101DF00000F480723AB1A54A121F126822F4807270
:101E0000A24B1B1F1A6000F480623AB19F4A121F56
:101E1000126822F480629D4B1B1F1A6000F00202C0
:101E20002AB19A4A126822F00202984B1A6070474F
:101E300030B19649096841F40061944A116005E0A7
:101E40009249096821F40061904A116070470128A5
:101E500002D0022824D111E08C4A243213684A1E91
:101E600023EA0252894B24331A601A4613684A1E29
:101E700043EA0252854B24331A6012E0834A30321F
:101E800013684A1E23EA0252804B30331A601A4606
:101E900013684A1E43EA02527C4B30331A6000E05A
:101EA00000BF00BF704770B51446122900D1002151
:101EB000062810D2754D2C352A6800EB80061F25A8
:101EC000B540AA4300EB800501FA05F52A436F4DA2
:101ED0002C352A602AE00C2812D26C4D28352A684D
:101EE000851F05EB85061F25B540AA43851F05EB19
:101EF000850501FA05F52A43644D28352A6015E069
:101F0000102813D2614D24352A68A0F10C0505EB89
:101F100085061F25B540AA43A0F10C0505EB8505F4
:101F200001FA05F52A43594D24352A600A2910D2B1
:101F3000564D08352B6801EB41060725B540AB43EC
:101F400001EB410504FA05F52B43504D08352B6094
:101F500015E0122913D24D4D2D1D2B68A1F10A0554
:101F600005EB45060725B540AB43A1F10A0505EB96
:101F7000450504FA05F52B43444D2D1D2B6070BD1E
:101F8000F0B50346414E30363668C6F30155052B91
:101F900015D23E4E30363468EE1A06EB8606C6F190
:101FA0000F071F26BE40B443EE1A06EB8606C6F1A5
:101FB0000F0601FA06F63443344E303634600A29EF
:101FC00010D2324E0836306801EB41070726BE407A
:101FD000B04301EB410602FA06F630432B4E0836B9
:101FE000306015E0132913D2284E361D3068A1F158
:101FF0000A0606EB46070726BE40B043A1F10A06D3
:1020000006EB460602FA06F63043204E361D3060D7
:10201000F0BD30B5024600201C4C30342468C4F3B7
:1020200001539C1AC4F10300032806D88000C1F3B1
:102030000B04174D0544C5F8144430BD91B100F0B0
:1020400001022AB1114A126842F480120F4B1A6041
:1020500000F00202C2B10D4A126842F400420B4B7A
:102060001A6011E000F001022AB1084A126822F455
:102070008012064B1A6000F002022AB1034A12686D
:1020800022F40042014B1A6070470000082401400E
:1020900000200140012802D0022816D10AE0994A06
:1020A000126822F46022974B1A601A4612680A439B
:1020B0001A600BE0934A126822F4E042914B1A60D6
:1020C0001A4612680A431A6000E000BF00BF70475A
:1020D00000F0010129B18B49096841F48001894A66
:1020E000116000F0020129B18649096841F400112C
:1020F000844A1160704783484430006880B270475A
:10210000024632B1012A08D0022A0AD0032A10D18D
:102110000BE07C48343001680DE07A4838300168C3
:1021200009E078483C30016805E0764840300168B5
:1021300001E0002100BF00BF88B2704701460020C7
:10214000704A083A12680A4002B1012070476D498E
:102150000839096881436B4A083A116070470246A2
:102160000020012A04D0022A10D0042A2AD11BE020
:10217000644B083B1B6803F00101624B1B1F1B688B
:1021800003F040030BB101B101201CE05D4B083BA3
:102190001B6803F002015B4B1B1F1B6803F020034D
:1021A0000BB101B101200EE0564B083B1B6803F058
:1021B0000401544B1B1F1B6803F080030BB101B1DA
:1021C000012000E000BF00BF70474E490839096890
:1021D00081434C4A083A1160704700F0010139B15F
:1021E0004849091F096841F04001464A121F116021
:1021F00000F0020139B14349091F096841F020018B
:10220000404A121F116000F0040139B13D49091F15
:10221000096841F080013B4A121F1160704700F0CD
:10222000010139B13749091F096821F04001354AD8
:10223000121F116000F0020139B13249091F09680B
:1022400021F020012F4A121F116000F0040139B162
:102250002C49091F096821F080012A4A121F1160C8
:1022600070472849091F0968274A1140254A121F4B
:102270001160114609680143116011460968234A3B
:102280001143204A121F116070471E49091F096837
:102290001D4A1F3211401B4A121F1160012804D031
:1022A00002280BD003281BD111E01649091F096829
:1022B00041F40001134A121F116012E01149091F75
:1022C000096841F480010F4A121F116009E00D49AD
:1022D000091F096841F440010A4A121F116000E019
:1022E00000BF00BF70470748001F0068064908404C
:1022F0000449091F08607047024A20321060121F0B
:102300001160704708240140E0FD3FFF0002C0005B
:1023100000EB8001FD4A02EB8101896821F0010197
:1023200000EB8002F94B03EB82029160002100EB8D
:10233000800203EB8202916000EB800203EB8202D9
:10234000D16000EB800203EB8202116100EB80029E
:1023500003EB820251611946496883000F229A40BB
:102360001143EA4A516070470FB410B500EB800387
:10237000E64C04EB8303039A1A6100EB800304EB41
:102380008303069A5A6100EB800304EB83030A9AE5
:10239000DA6000EB8002234603EB8202916821F4AD
:1023A0007C51079B049A1A430B9B1A43114300EB81
:1023B0008002234603EB82029160059A62B900EB2A
:1023C000800203EB8202926842F0400200EB80033D
:1023D00004EB83039A600DE000EB8002CB4B03EB30
:1023E0008202926822F0400200EB8003C74C04EBAB
:1023F00083039A60089A72B900EB8002C34B03EB27
:102400008202926842F0800200EB8003BF4C04EB32
:1024100083039A600DE000EB8002BC4B03EB820269
:10242000926822F0800200EB8003B84C04EB830337
:102430009A60099A72B900EB8002B44B03EB8202F6
:10244000926822F0100200EB8003B04C04EB83038F
:102450009A600DE000EB8002AC4B03EB82029268C5
:1024600042F0100200EB8003A84C04EB83039A6057
:1024700010BC5DF814FB00EB8001A44A02EB810163
:10248000896841F0200100EB8002A04B03EB82023F
:102490009160704700EB80019C4A02EB81018968E2
:1024A00021F0200100EB8002984B03EB8202916047
:1024B000704700EB8001954A02EB8101896841F485
:1024C000804100EB8002914B03EB820291607047E8
:1024D00000EB80018D4A02EB8101896821F4804183
:1024E00000EB8002894B03EB82029160704700EBA6
:1024F0008001864A02EB8101896841F0010100EB0D
:102500008002824B03EB82029160704700EB8001F6
:102510007E4A02EB8101896821F0010100EB800213
:102520007A4B03EB82029160704700EB8002774B9D
:1025300003EB82021161704700EB8002734B03EBE7
:1025400082025161704700EB8002704B03EB820204
:10255000D1607047014601EB81006C4A02EB8000BC
:10256000C068704710B50A4600EB8003674C04EB67
:102570008303996821F44051114300EB800304EB7D
:102580008303996010BD10B50A4600EB80035F4CD1
:1025900004EB8303996821F44061114300EB80034D
:1025A00004EB8303996010BD10B50A4600EB80036D
:1025B000564C04EB8303996821F44071114300EBFE
:1025C000800304EB8303996010BD00EB80014F4A48
:1025D00002EB8101896841F0800100EB80024B4BE6
:1025E00003EB82029160704700EB8001474A02EBE7
:1025F0008101896821F0800100EB8002434B03EBED
:1026000082029160704700EB8001404A02EB810139
:10261000896841F0400100EB80023C4B03EB8202F1
:102620009160704700EB8001384A02EB81018968B4
:1026300021F0400100EB8002344B03EB82029160F9
:10264000704710B571B900EB8002304B03EB82028A
:10265000926822F0100200EB80032C4C04EB830301
:102660009A600DE000EB8002284B03EB8202926837
:1026700042F0100200EB8003244C04EB83039A60C9
:1026800010BDF0B50246002300240F250E260129B7
:102690003ED0022904D0042914D008294AD123E0CD
:1026A0001A480068970001FA07F700EA070490004B
:1026B000C44002EB8200154F07EB8000806800F0F9
:1026C000020338E011480068970001FA07F700EAB2
:1026D00007049000C44002EB82000C4F07EB80001F
:1026E000806800F0040326E008480068970001FABB
:1026F00007F700EA07049000C44002EB8200034F92
:1027000007EB8000806800F0080314E0000002403E
:102710002B480068970005FA07F700EA07049000C5
:10272000C44002EB8200264F07EB8000806800EA7D
:10273000060300E000BF00BF04EA030008B1012067
:10274000F0BD0020FCE71E4A5268830001FA03F343
:102750001A431B4B5A60704710B500EB8002184BB0
:1027600003EB820292680A4300EB8003144C04EBF3
:1027700083039A6010BD10B500EB8002104B03EB91
:10278000820292688A4300EB80030D4C04EB8303C2
:102790009A6010BD10B50246094B1B68940001FAFF
:1027A00004F423400BB1012000E0002010BD044AD6
:1027B0005268830001FA03F31A43014B5A607047D1
:1027C0000000024000203049086070474AF6AA2005
:1027D0002D49086070474CF6CC402B490860704783
:1027E00010B50146294B002245F25550264C206079
:1027F00000BF2548C06800F00402581E031E01D027
:10280000002AF6D10AB1002010BDC1F30B001E4C06
:1028100020610120F8E730B502460B461B4C002131
:1028200045F25550184D286000BF1748C06800F0A9
:102830000101601E041E01D00029F6D109B100205B
:1028400030BD11484360114C00BF0F48C06800F014
:102850000201601E041E01D00029F6D109B100203A
:10286000EEE7C2F30B00084DA8604AF6AA202860E4
:102870000120E5E701460448C068084008B101208E
:1028800070470020FCE7000000300040FFFF0F0011
:1028900010B504467349601A8C4220D006DCB4F1AE
:1028A000904F0AD070482044A0BB0FE0B0F5806F75
:1028B0001ED0B0F5406F2ED123E040F6112000F07D
:1028C000D7F940F6112000F0E1F925E040F612209A
:1028D00000F0CEF940F6122000F0D8F91CE040F6E6
:1028E000132000F0C5F940F6132000F0CFF913E0F3
:1028F00040F6142000F0BCF940F6142000F0C6F9B0
:102900000AE040F6162000F0B3F940F6162000F079
:10291000BDF901E0FFE700BF00BF10BDF0B5044600
:102920000D4616462168E268002019E0012787401D
:102930001F409FB14FEA400C032707FA0CF7B94339
:10294000470005FA07F739434FEA400C032707FA17
:102950000CF7BA43470006FA07F73A43471CB8B2E8
:102960001028E3D32160E260F0BDF0B50C461546B7
:10297000012C03D146681E43466002E046689E4330
:102980004660826800210DE001268E401E403EB167
:102990004F000326BE40B2434E0005FA06F632430E
:1029A0004E1CB1B21029EFD38260F0BD8161704737
:1029B000816270470AB1816100E0816270474161C4
:1029C000704702461069084008B101207047002096
:1029D000FCE70146086980B270470246506908402A
:1029E00008B1012070470020FCE70146486980B229
:1029F0007047F0B503461C6A5D6A00200DE00126B1
:102A0000864016403EB187000F26BE40B443860084
:102A100001FA06F63443461CB0B20828EFD308206A
:102A200011E00126864016405EB1A0F10806B7000D
:102A30000F26BE40B543A0F10806B60001FA06F61F
:102A40003543461CB0B21028EBD31C625D62F0BD6A
:102A50004FF480320A43C261C161C261C269C26976
:102A6000704700000008004800FCFFB743490143DD
:102A7000434A11607047F0B50B4600210024002541
:102A80003F4E366806F4E066B6F5E06F02D100BF4F
:102A9000042526E03A4E366806F4E066B6F5C06FC7
:102AA00002D1012403251CE0354E366806F4E066A9
:102AB000B6F5A06F02D10224022512E0304E36682E
:102AC00006F4E066B6F5806F02D10324012508E024
:102AD0002B4E366806F4E066B6F5407F01D104243B
:102AE0000025C4F1040603FA06F1C5F104070F2618
:102AF000FE40164031430901224E315400F01F07B9
:102B00000126BE404711BF0007F1E027C7F800616A
:102B1000F0BD00F01F02012191401B4A431142F811
:102B200023107047194A0A400243154B1B1F1A60B5
:102B300070471349091D09680143114A121D1160AC
:102B400070470F49091D096881430D4A121D116024
:102B50007047042808D14FF0E021096941F00401D1
:102B60004FF0E022116107E04FF0E021096921F008
:102B700004014FF0E0221161704700000000FA05E7
:102B80000CED00E000E400E080E100E080FFFF1FCA
:102B9000FD48006840F00100FB49086000BFFA48AA
:102BA000006800F002000028F9D0F7484068F749B3
:102BB0000840F549486008464068F5490840F24930
:102BC00048600846406820F44000486008460068B5
:102BD000F0490840EC4908600846C06A20F00F0040
:102BE000C8620846006B40F243118843E649086317
:102BF0000846406B20F00100486300208860704761
:102C0000E14A02EB9011096800F01F0301229A408B
:102C10001143DD4B03EB901211607047DA4A02EB6F
:102C20009011096800F01F0301229A409143D64B8E
:102C300003EB901211607047D34A02EB90110968C0
:102C400000F01F0301229A401143CF4B03EB901277
:102C500011607047CC4A02EB9011096800F01F0325
:102C600001229A409143C84B03EB901211607047C8
:102C7000C54A02EB9011096800F01F0301229A4037
:102C80001143C14B03EB901211607047BE4A02EB37
:102C90009011096800F01F0301229A409143BA4B3A
:102CA00003EB901211607047B748006A40F480301F
:102CB000B54908627047B448006A20F48030B249D0
:102CC0000862704701460020AF4A506820F00300B8
:102CD00041EA0002AC4B5A607047AB48406800F0D4
:102CE0000C00704701460020A74A506820F0F00011
:102CF00041EA0002A44B5A60704701460020A24AF4
:102D0000506820F4E06041EA00029F4B5A6070472F
:102D1000014600209C4A506820F4605041EA0002BD
:102D2000994B5A6070479849496821F44041964A46
:102D300051601146096B21F480711163052839D265
:102D4000DFE800F0030A14202C008F49096B21F4FE
:102D500080718D4A11632EE08B4949688A4A51601F
:102D60001146096B41F48071116324E0864949687A
:102D700041F48041844A51601146096B41F48071ED
:102D8000116318E08049496841F400417E4A51606E
:102D90001146096B41F4807111630CE07A4949686E
:102DA00041F44041784A51601146096B41F4807109
:102DB000116300E000BF00BF70477349496821F408
:102DC0004001714A516011464968014351607047A2
:102DD00010B500226C4B5A6822F0774242EA000399
:102DE0000B43694C636010BD674A52686A4B1A40D6
:102DF000654B5A601A46526840EA01031A43624B17
:102E00005A6070476049096B21F003015E4A116303
:102E10001146096B0143116370475B49096B21F04F
:102E20004001594A11631146096B01431163704710
:102E30005549096A21F44071534A11621146096AE1
:102E400001431162704700214F4AD16A21F00F01FE
:102E500041EA00024C4BDA6270474B49096A21F0A3
:102E60001801494A11621146096A0143116270470B
:102E70000146454A02EB9110006801F01F03012250
:102E80009A40104008B1012070470020FCE73E48FE
:102E9000406A40F080703C494862704701463A48B9
:102EA0008068084008B1012070470020FCE73649DF
:102EB00089680143344A9160704733498968014306
:102EC000314A916070473049896881432E4A916048
:102ED0007047F0B50646002400270025B6F5006FC0
:102EE0001DD005DC76B3102E09D0182E7BD169E0F9
:102EF000B6F5106F54D0B6F5506F74D132E004E0DF
:102F00001120FFF7B5FF0546641C15B9B4F5006F35
:102F1000F6D11120FFF7ACFF00B1012764E005E016
:102F200040F60100FFF7A4FF0546641C1DB96FF0D1
:102F30007C408442F4D140F60100FFF799FF00B1D4
:102F4000012751E004E00120FFF792FF0546641CD1
:102F500015B9B4F5A06FF6D10120FFF789FF00B1D4
:102F6000012741E005E040F60150FFF781FF0546EB
:102F7000641C15B909488442F5D140F60150FFF7A9
:102F800077FF00B101272FE0001002400C00FF087E
:102F9000FFFFC277FFFFF2FEFFFFC2F7FFFF0F0048
:102FA00005E040F60110FFF763FF0546641C15B904
:102FB000F8488442F5D140F60110FFF759FF00B1FF
:102FC000012711E004E01920FFF752FF0546641CB9
:102FD00015B9F0488442F6D11920FFF749FF00B136
:102FE000012701E0FFE700BF00BF3846F0BDEA4A15
:102FF00002EB9011096800F01F0301229A4011436F
:10300000E54B03EB901211607047E34A02EB90111D
:10301000096800F01F0301229A409143DE4B03EB45
:103020009012116070470146B1F5006F18D005DCB1
:1030300009B3102909D0182921D11FE0B1F5106F6B
:103040001BD0B1F5506F1AD116E0D34A1068126840
:1030500022F48032D04B1A6040F480221A600FE0D4
:10306000CD4A106A126A22F00102CB4B1A6240F07C
:1030700004021A6204E000BF00BF00BF00E000BF0E
:1030800000BF70470146B1F5006F18D005DC09B3E9
:10309000102909D0182921D11FE0B1F5106F1BD0DC
:1030A000B1F5506F1AD116E0BB4A1068126822F4CD
:1030B0008032B94B1A6020F480221A600FE0B64AC1
:1030C000106A126A22F00102B34B1A6220F0040265
:1030D0001A6204E000BF00BF00BF00E000BF00BFF5
:1030E0007047AD48006840F40020AB490860704765
:1030F000A948006820F40020A74908607047002113
:10310000A54A116821F0F80141EAC002A24B1A60F9
:1031100070470021A04A516B21F0F80141EAC0023A
:103120009D4B5A6370479D48006800209A49C1F83A
:1031300000019A4800689A4908439749C1F800017C
:10314000704796493431096821F00701924AC2F864
:1031500034111146D1F834110143C2F834117047CB
:103160008E493831096821F001018B4AC2F83811C3
:103170001146D1F838110143C2F8381170472DE9D2
:10318000F04F8FB004464FF0000CE04600200022C4
:1031900000258146CDF838900021CDF83490CDF847
:1031A0003090CDF82C900023CDF82890CDF82490C5
:1031B000CDF82090002600270FF2E81999E8004C7E
:1031C000D9F80C90CDE905BECDF810A0CDF81C9033
:1031D0000FF2D41ADAE9009ACDE9029A0FF2C81A6E
:1031E000DAE9009ACDE9009ADFF8AC91D9F80490B9
:1031F000C9F3810CBCF1000F06D0BCF1010F05D062
:10320000BCF1020F3FD103E06A4A3EE0694A3CE06C
:10321000DFF88491D9F80490C9F38343DFF87891FB
:10322000D9F80490C9F3C069CDF82890DDF828904A
:10323000B9F1000F01D0113300E09B1CDFF8589169
:10324000D9F80490C9F30049CDF82490DDF8249012
:10325000B9F1000F12D0DFF84091D9F82C9009F0A5
:103260000F0909F10109CDF82090DFF848A1DDF838
:103270002090BAFBF9F909FB03F203E0DFF838917B
:1032800003FB09F201E04B4A00BF00BFDFF80891E1
:10329000D9F80490C9F303160DF1100919F8067056
:1032A00022FA07F5DFF8F090D9F80490C9F3022666
:1032B0000DF1080919F8067025FA07F9CDF83890CC
:1032C000DFF8D490D9F80490C9F3C2261DF806702F
:1032D00025FA07F1072C5CD2DFE804F00406080A9F
:1032E0000C47720010469FE028469DE00E989BE038
:1032F000084699E0DFF8A090D9F8309009F4807979
:10330000B9F5807F04D0DFF8B490CDF834902AE08E
:10331000DFF88490D9F80490C9F38138B8F1000F30
:1033200009D0B8F1010F0BD0B8F1020F0DD0B8F1F0
:10333000030F16D110E04FEA5109CDF8349011E097
:103340004FEA9109CDF834900CE04FF00609B1FB3B
:10335000F9F9CDF8349005E04FEAD109CDF8349071
:1033600000E000BF00BF0D985EE0DFF82C90D9F8B8
:10337000309009F04009B9F1400F04D048F2120929
:10338000CDF8309003E04FF40049CDF830900C9820
:103390004AE048E0FFFF0F00001002400011024029
:1033A0004D3C2B1A00000000000000000102030445
:1033B0000607080900127A0000093D00809FD50029
:1033C000DFF86C90D9F8309009F00309B9F1000FDB
:1033D00001D10B9125E0DFF85890D9F8309009F031
:1033E0000309B9F1010F01D10B921AE0DFF8409007
:1033F000D9F8309009F00309B9F1020F04D14FF464
:103400000049CDF82C900CE0DFF82490D9F83090EA
:1034100009F00309B9F1030F03D1DFF81890CDF8D3
:103420002C900B9800E000BF00BF0FB0BDE8F08FFC
:103430000010024000127A0010B50446FE49601ADE
:103440008C4217D00CDCB4F1804F1CD0FB482044D8
:1034500010B3B0F5406F28D0B0F5E05F52D12DE049
:10346000B0F5A05F33D0B0F5C05F39D0B0F5E05F04
:1034700048D13EE040F20B30FFF7FAFB40F20B3050
:10348000FFF704FC3FE04FF48060FFF7F1FB4FF4DF
:103490008060FFF7FBFB36E040F20140FFF7E8FBFE
:1034A00040F20140FFF7F2FB2DE040F20440FFF74D
:1034B000DFFB40F20440FFF7E9FB24E04FF48160BA
:1034C000FFF7D6FB4FF48160FFF7E0FB1BE04FF402
:1034D0004470FFF7CDFB4FF44470FFF7D7FB12E0C9
:1034E00040F21130FFF7C4FB40F21130FFF7CEFB82
:1034F00009E040F21230FFF7BBFB40F21230FFF759
:10350000C5FB00E000BF00BF10BD0A888262CA4A46
:10351000904206D0B0F1804F03D0C84A5242904248
:103520000CD1026822F01002026002684B881A4334
:10353000026002688B881A43026007E0026822F08A
:103540001002026002688B881A4302608A68C262B5
:10355000BB4A904207D0026822F4407202600268BF
:103560008B891A430260B44A904208D0B54A90420F
:1035700005D0B54A904202D0B44A904201D18A7B2C
:103580000263426942617047016841F001010160D4
:103590007047016821F0010101607047016841F046
:1035A000800101607047016821F08001016070476F
:1035B000016841F0020101607047016821F00201D9
:1035C00001607047026822F06002026002680A43EC
:1035D00002607047016821F010010160016801601C
:1035E0007047016821F010010160016841F010018D
:1035F0000160704781621AB9436943F00103436176
:10360000704701637047C16270474162704701466D
:103610000020486A7047014600208A6A90B27047CD
:1036200021B9026842F00802026005E0012903D1D5
:10363000026822F008020260704721B9026842F075
:103640000402026005E0012903D1026822F00402AD
:1036500002607047C2680A43C2607047C2688A430A
:10366000C260704710B5024600230024106908406C
:1036700083B2D068084084B213B10CB1012010BDF0
:103680000020FCE702698A43026170470246106924
:10369000084080B208B1012070470020FCE70269B1
:1036A0008A4302617047C2680A43C2607047C268B9
:1036B0008A43C260704721B9426842F00802426002
:1036C00005E0012903D1426822F0080242607047F8
:1036D00010B5836C41F61F74A3438364836C41EA85
:1036E00002042343836410BD42690A434261704768
:1036F0000A884B881A438B881A43CB881A430B8954
:103700001A434B891A438B891A4342647047416CB0
:1037100041F4805141647047416C0021416470471D
:10372000416C41F4804141647047416C0021416427
:10373000704721B1426C42F40042426403E0426CA3
:1037400022F400424264704721B1426842F0010213
:10375000426003E0426822F001024260704721B9F2
:10376000426822F00402426005E0012903D1426868
:1037700042F004024260704710B531B1012941D0D6
:1037800002297DD003297CD1C0E0036A23F0010324
:103790000362036A148823430362036A23F002036B
:1037A0000362036A948823430362234B984208D040
:1037B000244B984205D0244B984202D0234B984288
:1037C0001FD1036A23F004030362036A548823436E
:1037D0000362036A23F008030362036AD488234365
:1037E0000362436823F4807343604368148923436E
:1037F0004360436823F40073436043685489234360
:103800004360A3E0036A23F010030362036A148891
:1038100043EA04130362036A23F020030362036A8A
:10382000948843EA04130362034B984233D1036A3A
:1038300023F0400303620BE0002C014000FCFFBFBB
:103840000010004000400140004401400048014099
:10385000036A548843EA04130362036A23F0800373
:103860000362036AD48843EA04130362436823F4BF
:10387000806343604368148943EA8403436001E042
:103880000AE062E0436823F40063436043685489BC
:1038900043EA8403436059E0036A23F480730362BC
:1038A000036A148843EA04230362036A23F400735F
:1038B0000362036A948843EA04230362FC4B984240
:1038C00023D1036A23F480630362036A548843EAC2
:1038D00004230362036A23F400630362036AD48847
:1038E00043EA04230362436823F48053436043683C
:1038F000148943EA04134360436823F4005343608C
:103900004368548943EA041343601FE0036A23F4C5
:1039100080530362036A148843EA04330362036A30
:1039200023F400530362036A948843EA0433036276
:10393000DF4B984208D1436823F4804343604368D7
:10394000148943EA8413436000E000BF00BF10BD48
:1039500031B101290CD0022913D0032922D118E05A
:10396000836923F0700383618369134383611AE0E1
:10397000836923F4E0438361836943EA022383611B
:1039800011E0C36923F07003C361C3691343C361CA
:1039900009E0C36923F4E043C361C36943EA022336
:1039A000C36100E000BF00BF704731B1012906D0FC
:1039B000022906D0032908D105E0426306E08263AC
:1039C00004E0C26302E0026400E000BF00BF704791
:1039D00031B101290CD0022913D0032922D118E0DA
:1039E000836923F0080383618369134383611AE0C9
:1039F000836923F400638361836943EA022383615B
:103A000011E0C36923F00803C361C3691343C361B1
:103A100009E0C36923F40063C361C36943EA022375
:103A2000C36100E000BF00BF704731B101290CD075
:103A3000022913D0032922D118E0836923F004035B
:103A400083618369134383611AE0836923F480638C
:103A50008361836943EA0223836111E0C36923F030
:103A60000403C361C3691343C36109E0C36923F459
:103A70008063C361C36943EA0223C36100E000BFFE
:103A800000BF704731B101290CD0022913D003299E
:103A900022D118E0836923F0800383618369134393
:103AA00083611AE0836923F400438361836943EAF5
:103AB0000223836111E0C36923F08003C361C369FA
:103AC0001343C36109E0C36923F40043C361C369BD
:103AD00043EA0223C36100E000BF00BF704731B179
:103AE00001290CD0022913D0032923D119E0036A3C
:103AF00023F002030362036A134303621BE0036AB9
:103B000023F020030362036A43EA0213036212E014
:103B1000036A23F400730362036A43EA0223036225
:103B200009E0036A23F400530362036A43EA0233A1
:103B3000036200E000BF00BF704721B101290AD035
:103B400002291AD110E0036A23F008030362036A12
:103B50001343036212E0036A23F080030362036AE3
:103B600043EA0213036209E0036A23F40063036279
:103B7000036A43EA0223036200E000BF00BF70470C
:103B8000012904D1826842F00802826004E019B978
:103B9000826822F008028260704731B101290CD09E
:103BA000022913D0032923D119E0036A23F001036A
:103BB0000362036A134303621BE0036A23F01003EA
:103BC0000362036A43EA0213036212E0036A23F406
:103BD00080730362036A43EA0223036209E0036A13
:103BE00023F480530362036A43EA0233036200E072
:103BF00000BF00BF704721B101290AD002291AD1A4
:103C000010E0036A23F004030362036A13430362B0
:103C100012E0036A23F040030362036A43EA0213DB
:103C2000036209E0036A23F480630362036A43EAE0
:103C30000223036200E000BF00BF704731B10129D9
:103C40000CD0022913D0032922D118E0836923F074
:103C50000C0383618369134383611AE0836923F44E
:103C600040638361836943EA0223836111E0C3698E
:103C700023F00C03C361C3691343C36109E0C36943
:103C800023F44063C361C36943EA0223C36100E0D4
:103C900000BF00BF704770B504460E4615464EB1D2
:103CA000012E29D0022E4BD0032E7DD16BE00000D7
:103CB000002C0140206A20F001002062206A20F0E0
:103CC0000A002062206A298808432062A06920F047
:103CD0000300A061A06969880843A061A06920F081
:103CE000F000A061A069E98840EA0110A061206AA3
:103CF00040F0010020626DE0206A20F01000206298
:103D0000206A20F0A0002062206A298840EA011081
:103D10002062A06920F44070A061A069698840EA2F
:103D20000120A061A06920F47040A061A069E98829
:103D300040EA0130A061206A40F01000206249E0B2
:103D4000206A20F480702062206A20F420602062C3
:103D5000206A298840EA01202062E06920F00300FF
:103D6000E061E06969880843E061E06920F0F00003
:103D7000E061E069E98840EA0110E061206A40F40E
:103D80008070206226E0206A20F480502062206A41
:103D900020F400502062206A298840EA0130206225
:103DA000E06920F4407000E013E0E061E0696988B8
:103DB00040EA0120E061E06920F47040E061E069E0
:103DC000E98840EA0130E061206A40F480502062D6
:103DD00000E000BF00BFAA8831462046FFF72EFF53
:103DE00070BD0246002031B1012906D0022906D05B
:103DF000032908D105E0506B06E0906B04E0D06B1E
:103E000002E0106C00E000BF00BF70472DE9F041F8
:103E100004460E4615460027B846288808B90227EA
:103E200000E000276888012802D14FF0020801E075
:103E30004FF00108002E4BD1206A20F001002062D3
:103E4000206A20F00A002062206A29880843206244
:103E5000A06920F00300A061A06969880843A061FF
:103E6000A06920F0F000A061A069E9880843A06182
:103E7000206A40F001002062AA8800212046FFF756
:103E8000DDFE206A20F010002062206A20F0A000F1
:103E90002062206A40EA07102062A06920F4407086
:103EA000A061A06940EA0820A061A06920F47040E8
:103EB000A061A069E98840EA0120A061206A40F081
:103EC00010002062AA8801212046FFF7B7FE4BE0D0
:103ED000206A20F010002062206A20F0A0002062FA
:103EE000206A298840EA01102062A06920F440700D
:103EF000A061A069698840EA0120A061A06920F45E
:103F00007040A061A069E98840EA0120A061206AB0
:103F100040F010002062AA8801212046FFF78EFEA3
:103F2000206A20F001002062206A20F00A0020624E
:103F3000206A38432062A06920F00300A061A069D4
:103F400040EA0800A061A06920F0F000A061A0692B
:103F5000E9880843A061206A40F001002062AA8835
:103F600000212046FFF76AFEBDE8F08121B94268D2
:103F700042F08002426005E0012903D1426822F04C
:103F8000800242607047826822F07002826082681C
:103F90000A4382607047426822F0700242604268C1
:103FA0000A4342607047826822F00702826082689A
:103FB0000A438260704721B9826842F080028260C1
:103FC00005E0012903D1826822F0800282607047F7
:103FD00030B5846824F43F448460846841EA020573
:103FE0002C438460846844EA0324846030BD30B587
:103FF000846824F00704846084680C4384608469C6
:1040000040F20335AC438461846940F201152C43CE
:104010008461046A24F00A040462046A24F0A0049F
:104020000462046A42EA03152C43046230BD8168CD
:1040300000218160704710B503460C4621461846A2
:10404000FFF7A1FF986820F007009860986840F09B
:104050000700986010BD70B504460E461546602EE8
:1040600020D1206A20F010002062206A20F0A000F9
:104070002062206A40EA05102062A06920F44070A6
:10408000A061A06940F48070A061A06920F4704034
:10409000A061A06940EA0320A061206A40F01000FE
:1040A00020621DE0206A20F001002062206A20F0DA
:1040B0000A002062206A28432062A06920F00300E1
:1040C000A061A06940F00100A061A06920F0F000AB
:1040D000A061A0691843A061206A40F0010020623D
:1040E00031462046FFF74FFFA06820F00700A06090
:1040F000A06840F00700A06070BDF0B504460D4612
:1041000016461F463B46324629462046FFF760FFCB
:10411000A06820F00700A060A06840F00700A06041
:10412000A06820F07000A060A06840F07000A0605F
:10413000F0BDF0B504460D4616461F463B463246D6
:1041400029462046FFF744FFA06840F48040A06065
:10415000F0BD816821F480418160704701B902653A
:104160007047000010B50446F848204458B1B0F537
:10417000744F11D140F20E30FEF77AFD40F20E304E
:10418000FEF784FD09E040F21140FEF771FD40F2B8
:104190001140FEF77BFD00E000BF00BF10BD2DE920
:1041A000F04704460D460027B846B9460026E748C2
:1041B000204438B1B0F5744F09D10620FEF7DFFF77
:1041C000074605E00220FEF7DAFF074600E000BFE1
:1041D00000BF206800F4004070B1780000EB55008B
:1041E000B0FBF5F64FF6F07006EA0008C6F3420998
:1041F00048EA0900E0600CE007EB5500B0FBF5F67B
:104200004FF6F07006EA000806F00F0948EA0900C8
:10421000E060BDE8F087026822F0010202600268F7
:1042200022F4C062026002680A43026070470268BA
:1042300022F001020260026822F4805202600268E9
:104240000A4302607047026822F00102026042687D
:1042500022F44052426042680A434260704701685B
:1042600041F0010101607047016821F00101016026
:104270007047026822F00802026002680A43026086
:104280007047026822F00402026002680A4302607A
:104290007047C1F30802826270470146486AC0F362
:1042A00008007047026822F001020260426822F4AE
:1042B00000224260426801F400231A4342607047C2
:1042C000026822F00102026008292DD2DFE801F025
:1042D00004091D0E22132718426842F4802242600E
:1042E00023E0426822F4802242601EE0426822F409
:1042F0000032426019E0426822F48032426014E0E9
:10430000426822F4004242600FE0426842F4003208
:1043100042600AE0426842F48032426005E042684E
:1043200042F40042426000E000BF00BF70470168F5
:1043300021F001010160816821F4805181607047A2
:10434000016821F001010160816841F480518160C0
:104350007047026822F001020260026822F4004203
:10436000026002680A4302607047026822F001029C
:104370000260826822F40062826082680A4382607E
:104380007047416841F4801141607047416821F4F1
:10439000801141607047426822F4C0024260426866
:1043A0000A4342607047016841F400510160704760
:1043B000016821F4005101607047026822F0010297
:1043C0000260026822F40062026002680A4302602E
:1043D0007047026822F001020260426822F0100277
:1043E0004260426801F010031A434260704702685D
:1043F00022F001020260426822F07F42426042687D
:104400004FF07F4303EA01631A43426070474168FB
:1044100041F4000141607047416821F400014160AE
:104420007047426902F07F42426142690A43426139
:104430007047016821F001010160416841F4804149
:1044400041607047016821F001010160416821F479
:10445000804141607047026822F0010202604268B8
:1044600001F020031A4342607047016821F0010106
:104470000160816841F0080181607047016821F0A6
:1044800001010160816821F00801816070470168C5
:1044900021F001010160416841F400614160704711
:1044A000016821F001010160416821F4006141606F
:1044B000704730B5046824F001040460446824F4B3
:1044C000E0644460446801F480752C4344604468AF
:1044D00002F400752C434460446803F480652C4367
:1044E000446030BD016821F001010160816841F044
:1044F000200181607047016821F00101016081683D
:1045000021F0200181607047016821F00101016004
:10451000816841F0100181607047016821F001015C
:104520000160816821F0100181607047026822F00B
:1045300001020260026922F47F42026102694FF4C3
:104540007F4303EA01231A430261704700BCFFBFA7
:10455000426922F07F42426142694FF07F4303EAA1
:1045600001631A4342617047026822F0010202604F
:10457000826822F46022826082684FF4602303EA3A
:1045800041431A4382607047016821F001010160D4
:10459000816841F0020181607047016821F00101EA
:1045A0000160816821F0020181607047026822F099
:1045B00001020260826801F004031A4382607047BE
:1045C000026822F001020260026922F0FF02026129
:1045D00002690A4302617047026822F00102026028
:1045E000826822F48072826082680A438260704727
:1045F000026822F001020260826822F40072826086
:1046000082680A4382607047016821F001010160FD
:10461000816841F4804181607047016821F00101A7
:104620000160816821F4804181607047026822F056
:1046300001020260026822F07872026002684FF0A4
:10464000787303EA41531A4302607047026822F00C
:1046500001020260026822F4F812026002684FF45C
:10466000F81303EA01431A4302607047026822F01C
:1046700001020260826822F400428260826801F4D2
:1046800000431A4382607047826822F040028260D1
:1046900082680A4382607047826822F080028260EA
:1046A00082680A4382607047016821F0010101605D
:1046B000816841F4005181607047016821F0010177
:1046C0000160816821F4005181607047016841F008
:1046D000020101607047016821F00201016070472A
:1046E000026822F001020260826822F440128260B5
:1046F000826801F440131A438260704710B5024685
:1047000002EB9110006801F01F040123A340184040
:1047100008B1012010BD0020FCE710B5026A01F0CD
:104720001F040123A3401A43026210BD10B5C1F358
:104730008912825801F01F040123A3401A43C1F3D8
:104740008913C25010BD10B5C1F38912825801F00F
:104750001F040123A3409A43C1F38913C25010BD23
:1047600082690A438261704770B5024600230024C3
:10477000C1F38910105801F01F060125B54000EA69
:10478000050302EB91500068C1F304460125B540D2
:1047900000EA050414B10BB1012070BD0020FCE754
:1047A00010B5026AC1F304440123A3401A43026214
:1047B00010BD00000948804709480047FEE7FEE7B2
:1047C000FEE7FEE7FEE7FEE7FEE7FEE7FEE7FEE7C1
:1047D00004480549054A064B704700006748000831
:1047E00069010008A0010020A0090020A005002008
:1047F000A00500206D4840686C4948600846406844
:104800004860084640684860084640686849084073
:1048100066494860084640686649084363494860FD
:104820000846006840F08070086000BF5F4800687C
:1048300000F000700028F9D05C48406820F00300C8
:104840005A4948600846406840F00200486000BF8E
:104850005648406800F008000028F9D0704710B5AD
:10486000FFF7C8FF10BD10B55048006840F00100C8
:104870004E49086000BF4D48006800F00200002863
:10488000F9D04A4840684C490840484948600846C1
:1048900040684A490840454948600846406820F455
:1048A0004000486008460068454908403F490860A4
:1048B0000846C06A20F00F00C8620846006B40F24C
:1048C00043118843394908630846406B20F00100D2
:1048D000486300208860FFF7C2FF10BD2DE9FF4349
:1048E00000210020002200230024002500260FF2D2
:1048F000D409D9E901C8D9F80070D9F80C90CDE9EC
:1049000001C8CDF80C900097284F7F68C7F381014C
:1049100021B1012908D0022932D10BE02D4FDFF857
:10492000B8C0CCF8007031E02A4FDFF8ACC0CCF84A
:1049300000702BE01D4F7F68C7F383401B4F7F68DB
:10494000C7F3C0620AB1113000E0801C174F7F68C6
:10495000C7F300436BB1154FFF6A07F00F077C1CCC
:104960001C4FB7FBF4F74743DFF86CC0CCF800707E
:1049700005E01A4F4743DFF860C0CCF8007005E04F
:10498000144FDFF854C0CCF8007000BF00BF074FD1
:104990007F68C7F303151DF805600F4F3F68F740A8
:1049A000DFF834C0CCF80070BDE8FF83001002408F
:1049B000FFFFC2F7000004080C00FF08FFFFC277EA
:1049C000FFFFF2FE000000000000000001020304EF
:1049D0000607080900127A009400002000093D0033
:1049E000032A40F2308010F0030C00F0158011F81B
:1049F000013BBCF1020F624498BF11F801CB00F8F3
:104A0000013B38BF11F8013BA2F1040298BF00F846
:104A100001CB38BF00F8013B11F0030300F0258003
:104A2000083AC0F0088051F8043B083A51F804CB2A
:104A3000A0E80810F5E7121D5CBF51F8043B40F8F0
:104A4000043BAFF30080D20724BF11F8013B11F8FB
:104A500001CB48BF11F8012B24BF00F8013B00F83F
:104A600001CB48BF00F8012B704710B5203AC0F0C9
:104A70000B80B1E81850203AA0E81850B1E818505F
:104A8000A0E81850BFF4F5AF5FEA027C24BFB1E89C
:104A90001850A0E8185044BF18C918C0BDE810400D
:104AA0005FEA827C24BF51F8043B40F8043B08BF16
:104AB0007047D20728BF31F8023B48BF11F8012BDD
:104AC00028BF20F8023B48BF00F8012B7047704711
:104AD00070477047754600F02BF8AE4605006946F2
:104AE000534620F00700854618B020B5FFF770FE4A
:104AF000BDE820404FF000064FF000074FF00008DF
:104B00004FF0000B21F00701AC46ACE8C009ACE85F
:104B1000C009ACE8C009ACE8C0098D46704710B5C3
:104B20000446AFF300802046BDE81040FBF763BBAE
:104B3000004870473C01002001491820ABBEFEE749
:104B400026000200704730B5039C062928D2DFE812
:104B500001F003090F151B210025156045421D605A
:104B6000206022E0106045421D60002525601CE0A9
:104B7000106000251D604542256016E00025156087
:104B800018604542256010E0454215601860002518
:104B900025600AE04542156000251D60206004E0A4
:104BA000002515601D60256000BF00BF30BD4910A5
:104BB00058BFC1F140415B1058BFC3F140438B4225
:104BC000EFF30080704700004FEA41034FEA535370
:104BD000A3F58063D3F11E03C8BFD3F1210C0CDD14
:104BE0004FF0004242EAC12242EA505232FA03FC3C
:104BF0008CEAE17CACEBE1707047102BC4BF002065
:104C0000704703F5787CBCF1FF3F04D06FF00042A1
:104C100082EA2100704770B500F002F949922480C1
:104C200000207047F2E710F0004248BF4042B0FA5F
:104C300080F310FA03F10AD0C3F11D0303F580637A
:104C40004FEA415002EB035202EBD12170474FF083
:104C50000000704751EA030C17D41CF5801F58BFA1
:104C6000BCF5801F00F10680994218BF704708BF4D
:104C70009042704707D711F5801F58BF13F5801F6A
:104C800019D499427047894270471CF5801F08D596
:104C9000BCF5801FF7D58B4218BF704708BF824212
:104CA00070474FF4001C1CEB410F38BF1CEB430F47
:104CB00001D28B42704770B500F0B2F892244900DF
:104CC0004FF000514FF08053FFF771BFDFF848C13C
:104CD00070B51CEA111E1EBF1CEA13159EEA0C0FCC
:104CE00095EA0C0F00F06F8081EA030423EA4C136D
:104CF0004EEAD47E21EA4C1141F4801143F4801332
:104D0000AE44A1FB024CA0FB0365AEF17F7E3619D9
:104D100055EB0C05A1FB034C4CF10003A0FB021C5E
:104D200016EB0C06654153F10003094218BF46F02B
:104D3000010613F4007F0BD14FEA03314FEA05302F
:104D4000340341EA155140EA16506FF003020AE0BD
:104D50004FEAC3214FEAC520F40241EA555140EA27
:104D600056506FF0020202EB2E4201EB025585EA2B
:104D7000CE710AD05FEA440C18BF24F0004450F111
:104D8000000041F1000120EAD47040F2FE7C62454F
:104D900000D270BDA84214BF4FF080444FF0404491
:104DA000002E08BF0024BEF1806FA8BFA1F1C04152
:104DB000BDE8704080F282804FF0000001F1C041F8
:104DC00001F0004170479EEA0C0F0CEA131518BF62
:104DD00095EA0C0F06D04FF0000081EA030E0EF0AA
:104DE000004170BD00F01CF88900013E00F007B8DA
:104DF00000F009B84FEA430C5FEA5C5C08D081EA36
:104E0000030100F05BB84FEA410C5FEA5C5CF6D14D
:104E10004FF00000014970470000FF070000F87FD5
:104E20000EF1020E2EF0030E5EF8046B364205D42E
:104E3000012A43EB030515F5001F12D8012841EBA9
:104E4000010C1CF5001F0CD80ED14FEAD17C15F5D2
:104E5000001F0CEB4C0C0CF1020C08BF4CEBD37C8C
:104E600004E04FF0080C01E04FEAD37C0CEB4C055A
:104E700026FA05F606F00706B6F1040C06D20EEB8C
:104E8000860CBDE870404CF0010C6047DFE80CF088
:104E9000090B02024FF000414FF00000A1F5002184
:104EA00070BD19461046012851EB010418BFD4F516
:104EB000001484BF002001F0004170BD0808A0F577
:104EC00000114FEA3101704743004FEAD30C4FEA1B
:104ED0003C0C43401FBF40070CF1605113F0FE4FE4
:104EE00070471CF0006F03D100200CF000417047A8
:104EF0000CF0004343EA507010B540EACC0000F0DB
:104F0000C4F800BF000000924FEA0001FFF7D6BFCF
:104F10004FF000414FF00000A1F500217047000064
:104F200041000B0ED3F19E0208D950F400034FEA62
:104F3000032323FA02F048BF4042704710B500F047
:104F4000A4F800BF49922480002070476FF000420F
:104F500082EA20007047000010F0004148BF404244
:104F6000B0FA80F310FA03F2C3F19D030BD051EABB
:104F7000C35101EB1220530638BF704700F1010006
:104F800008BF20F0010070474FF47F0C1CEAD012DC
:104F90001EBF1CEAD11392EA0C0F93EA0C0F00F02B
:104FA000478090EA010F48BF42F480724FF0004CF6
:104FB0004CEA00204CEA012102EB0302A0FB0113A2
:104FC000A2F50002002918BF43F001035B0028BFCF
:104FD0004FEA330342EB22425FEA132C4CEBC25000
:104FE0002EBFBCEB436FB2F57C0F70474FEA036CEA
:104FF000BCF1004F08BF20F00100B2F57C0F38BFB4
:1050000070470BD582F0FF0212F5803FC8BF704792
:1050100000F1C040D8BF00F00040704700F5000C20
:105020005FEA4C0C48BF7047B0F1C04000F073B865
:1050300090EA010F0CEAD11348BF42F48072624536
:1050400038BF634504D280EA010000F00040704799
:1050500010B500F01AF800BF8900013E00F007B853
:1050600000F009B85FEA410C5FEA1C6C08D080EAE6
:10507000010000F050B85FEA400C5FEA1C6CF6D10A
:105080004FF00040A0F5800070470EF1020E2EF0A8
:10509000030E5EF8044B244204D44FEA4102B2F1FD
:1050A0007F4F11D84FEA4003B3F17F4F0CD80ED198
:1050B0004FEAD07CB2F17F4F0CEB4C0C0CF1020CA0
:1050C00008BF4CEBD17C04E04FF0080C01E04FEA44
:1050D000D17C0CEB4C0324FA03F404F00704B4F184
:1050E000040C06D20EEB840CBDE810404CF0010C11
:1050F0006047DFE80CF0070802024FF00040A0F51F
:10510000800010BD0846420018BFD2F1807288BFEF
:1051100000F0004010BDFF2141EAD050C0057047AB
:10512000CA080000120200001CE00200C20B0000CE
:1051300005000000389300007F6ABC4000001F009B
:105140003F005E0075009400B400D300F2000A0135
:1051500029014801670187019E01BD01DD01F401BC
:10516000130233024A0269028802A002BF02D70278
:10517000F6020D032D0344035B0363036B03730308
:105180007B0382038A0392039A03A203AA03AA035E
:10519000B103B903B903C103C903C903D103D103DF
:1051A000D103D803D803D803E003E003E003E0030E
:1051B000E003E003E003E003E003E003E003E003D7
:1051C000E003D803D803D803D103D103D103C90323
:1051D000C903C103B903B903B103AA03AA03A20314
:1051E0009A0392038A0382037B0373036B036303B3
:1051F0005B0363036B0373037B0382038A039203E2
:105200009A03A203AA03AA03B103B903B903C10312
:10521000C903C903D103D103D103D803D803D803E9
:10522000E003E003E003E003E003E003E003E00366
:10523000E003E003E003E003E003D803D803D8036E
:10524000D103D103D103C903C903C103B903B9030E
:10525000B103AA03AA03A2039A0392038A03820357
:105260007B0373036B0363035B0344032D030D0391
:10527000F602D702BF02A002880269024A02330284
:105280001302F401DD01BD019E01870167014801A0
:1052900029010A01F200D300B400940075005E00F9
:1052A0003F001F000000E1FFC1FFA2FF8BFF6CFF6A
:1052B0004CFF2DFF0EFFF6FED7FEB8FE99FE79FEDD
:1052C00062FE43FE23FE0CFEEDFDCDFDB6FD97FD17
:1052D00078FD60FD41FD29FD0AFDF3FCD3FCBCFC1B
:1052E000A5FC9DFC95FC8DFC85FC7EFC76FC6EFC93
:1052F00066FC5EFC56FC56FC4FFC47FC47FC3FFC42
:1053000037FC37FC2FFC2FFC2FFC28FC28FC28FC4A
:1053100020FC20FC20FC20FC20FC20FC20FC20FCAD
:1053200020FC20FC20FC20FC20FC28FC28FC28FC85
:105330002FFC2FFC2FFC37FC37FC3FFC47FC47FCC5
:105340004FFC56FC56FC5EFC66FC6EFC76FC7EFC5C
:1053500085FC8DFC95FC9DFCA5FC9DFC95FC8DFCC5
:1053600085FC7EFC76FC6EFC66FC5EFC56FC56FC06
:105370004FFC47FC47FC3FFC37FC37FC2FFC2FFC65
:105380002FFC28FC28FC28FC20FC20FC20FC20FC16
:1053900020FC20FC20FC20FC20FC20FC20FC20FC2D
:1053A00020FC28FC28FC28FC2FFC2FFC2FFC37FCC1
:1053B00037FC3FFC47FC47FC4FFC56FC56FC5EFCB0
:1053C00066FC6EFC76FC7EFC85FC8DFC95FC9DFCF1
:1053D000A5FCBCFCD3FCF3FC0AFD29FD41FD60FDEE
:1053E00078FD97FDB6FDCDFDEDFD0CFE23FE43FEE1
:1053F00062FE79FE99FEB8FED7FEF6FE0EFF2DFF87
:105400004CFF6CFF8BFFA2FFC1FFE1FF060204030C
:10541000000105067A14000000000E009919000032
:105420000100000000004B0048540008000000206C
:1054300098000000A4010008E05400089800002033
:1054400008090000C0010008000000000000000082
:10545000409C000000000000000000000000000070
:1054600000000000C8000000000000000000000074
:10547000000000000000000000000000000000002C
:1054800000007800F00000000000000000000000B4
:10549000000000000000000000000000000000000C
:1054A00000000000000000000000000000000000FC
:1054B000D007000000000000000000000000000015
:1054C00000000000000000000000000001000000DB
:1054D000000000000000E8030000000000A24A04F1
:040000050800016985
:00000001FF
